:020000040800F2
:10000000F80600206501000849160008A51500083B
:1000100000000000000000000000000000000000E0
:100020000000000000000000000000004D16000865
:1000300000000000000000004B1600084F160008EA
:1000400077010008770100087701000877010008B0
:1000500077010008770100087701000877010008A0
:100060007701000877010008770100087701000890
:100070007701000877010008770100087701000880
:1000800077010008770100087701000800000000F0
:100090007701000877010008770100087701000860
:1000A000770100087701000877010008711B00083C
:1000B0007701000877010008770100087701000840
:1000C00000F002F800F03EF80CA030C80838241800
:1000D0002D18A246671EAB4654465D46AC4201D180
:1000E00000F030F87E460F3E0FCCB6460126334274
:1000F00000D0FB1AA246AB4633431847401C000011
:10010000601C0000103A02D378C878C1FAD85207B0
:1001100001D330C830C101D504680C6070470000BD
:100120000023002400250026103A01D378C1FBD813
:10013000520700D330C100D50B6070471FB51FBDFB
:1001400010B510BD00F0BCF91146FFF7F7FF01F044
:100150006FFD00F0E6F903B4FFF7F2FF03BC01F016
:1001600057FD00000748804707480047FEE7FEE7C5
:10017000FEE7FEE7FEE7FEE704480549054A064BB1
:1001800070470000E5160008C1000008F8000020D4
:10019000F8060020F8020020F80200207047FEB5A3
:1001A000054610460C46184373D0AE468C460020D8
:1001B000AD1A01469C4167D36646002701243D469F
:1001C000B61A9D4102D313463A4621246546764627
:1001D0002F04360C3E432D0CB61A9D4104D3150C4A
:1001E0001B042B4312041034654676462F06360A4C
:1001F0003E432D0AB61A9D4104D3150E1B022B4314
:1002000012020834654676462F0736093E432D090B
:10021000B61A9D4104D3150F1B012B431201241D57
:1002200065467646AF07B6083E43AD08B61A9D410F
:1002300004D3950F9B002B439200A41C6546764681
:10024000EF0776083E436D08B61A9D411AD39218FF
:100250005B41641C16E00018764665464941B71AB2
:100260009D410191009009D36046B11A98418E4694
:100270008446009801990025401C6941DD07520819
:100280002A435B08641EE6D57246634603B0F0BDA0
:10029000FFE700200146C046C0462A462346F5E750
:1002A0000FB4054910B503AA029800F0D9F810BCA4
:1002B00008BC04B0184700000000002001E004C0A2
:1002C000091F0429FBD28B0701D50280801CC907B6
:1002D00000D00270704700290BD0C30702D0027013
:1002E000401C491E022904D3830702D50280801CCA
:1002F000891EE3E70022EEE70022DFE70022030980
:100300008B422CD3030A8B4211D300239C464EE030
:1003100003460B433CD4002243088B4231D30309EC
:100320008B421CD3030A8B4201D394463FE0C3099E
:100330008B4201D3CB01C01A524183098B4201D3B6
:100340008B01C01A524143098B4201D34B01C01AA1
:10035000524103098B4201D30B01C01A5241C30819
:100360008B4201D3CB00C01A524183088B4201D388
:100370008B00C01A524143088B4201D34B00C01A74
:100380005241411A00D201465241104670475DE089
:10039000CA0F00D04942031000D34042534000220C
:1003A0009C4603098B422DD3030A8B4212D3FC22B5
:1003B000890112BA030A8B420CD3890192118B4234
:1003C00008D3890192118B4204D389013AD092114A
:1003D00000E08909C3098B4201D3CB01C01A524105
:1003E00083098B4201D38B01C01A524143098B42CE
:1003F00001D34B01C01A524103098B4201D30B01B7
:10040000C01A5241C3088B4201D3CB00C01A5241DB
:1004100083088B4201D38B00C01A5241D9D24308C2
:100420008B4201D34B00C01A5241411A00D20146FF
:10043000634652415B10104601D34042002B00D569
:100440004942704763465B1000D3404201B500202B
:10045000C046C04602BD70477047704770470000F5
:10046000084B70B50D467B4400F013F8044628464F
:1004700000F022F8002802D00020C04370BD2046C2
:1004800070BD0000AB17000001694A1C02610878CA
:10049000704700B58FB00291002105910549019385
:1004A0007944039111460490684600F028F80FB093
:1004B00000BD0000E5FFFFFFC068802108407047D5
:1004C000754600F037F8AE46050069465346C00849
:1004D000C000854618B020B5FFF74EFE60BC00276F
:1004E0004908B6460026C0C5C0C5C0C5C0C5C0C500
:1004F000C0C5C0C5C0C5403D49008D467047F8B570
:10050000064600244768806800903046F56803E09E
:100510000099B847641C3046A8470028F8D1204607
:10052000F8BD10B50446C046C0462046FFF713FE8E
:1005300010BD0000004870479800002072B6FEE72A
:1005400030B5014620314A790023022A04D0042222
:10055000C2630B71012030BD026814680E25AC43E4
:10056000146002681468640864001460446C1C22FF
:10057000144001221546006CA54045604A7118469A
:100580000B7130BD70B50024014620314A79022A32
:1005900003D00421C163012418E0026813680E250A
:1005A000AB431360026813685B085B001360436C25
:1005B0001C221340012215469D40036C5D604A7168
:1005C00000220A71816B002900D08847204670BD47
:1005D00070B5044600F0F2F80546601C02D00448ED
:1005E0000078241800F0EAF8401BA042FAD370BD4E
:1005F00004000020F8B5002303240125C2E03246A0
:100600002E469E40B446324079D00E79B607B60FDA
:10061000012E01D0022E17D186682746B6465E000D
:10062000B74000967646BE43B646CF68009EB740B8
:1006300076463743876046686746BE430F79FF06B4
:10064000FF0F9F40374347600E79F643B6070ED041
:10065000C6682746B4465E00B646B7406646BE4307
:10066000B4468F687646B74066463743C7600E7912
:10067000B607B60F022E14D1DE08B6003618009663
:10068000366A5F07B446FE0E0F27B646B740664689
:10069000BE43B4460F697646B74066463743009E70
:1006A000376206682746B4465E00B646B7406646DF
:1006B000BE430F79B446BF07BF0F7646B7406646C4
:1006C000374307604E68B603B60F5AD0304F7E6B83
:1006D0002E437E639F082F4EBF00BE190096B6685A
:1006E0000F27B4469E07360FB646B7406646BE4350
:1006F00005273F07B446B84202D100271AE040E080
:10070000254FB84201D1012714E0244FB84201D14E
:1007100002270FE0224FB84201D103270AE0214F00
:10072000B84201D1042705E01F4FB84201D1052787
:1007300000E006277646B74066463743009EB7601E
:100740001A4E36684F689643FF0300D51643174F7D
:100750003E607E684F689643BF0300D51643134F33
:100760007E60BE684F689643FF0200D516430F4F68
:10077000BE60FE684F689643BF0200D516430B4A21
:10078000D6605B1C0A681646DA4000D037E7F8BD31
:10079000001002400000014000040050000800501A
:1007A000000C005000100050001C005000040140DC
:1007B000002A01D0816170478162704701488068DA
:1007C0007047000004000020024881680278891800
:1007D000816070470400002010B5084800240168BB
:1007E000402211430160032000F00AF8002801D0E4
:1007F000012401E000F026F8204610BD0020024050
:1008000070B504460D4D7D202978C000FFF776FDB8
:1008100001460B480068FFF771FD00F07FFC0028DF
:1008200009D1042C07D200222146401E00F022F8F4
:1008300000206C6070BD012070BD0000040000202D
:10084000100000200448416B012211434163816B79
:10085000020411438163704700100240002805DB49
:10086000C106C90E01208840014908607047000098
:1008700000E100E010B501F0A9F910BDF8B504469B
:1008800000680027654D810601D400057ED5634EC2
:10089000403EB06BC00004D4B06B31040843B06379
:1008A00001275F480168C90511D401688215114309
:1008B0000160FFF783FF009005E0FFF77FFF0099DD
:1008C000401A642844D856480068C005F5D53168F8
:1008D00003200005626801401040884205D10323CF
:1008E000A0681B051840884208D09003800F032899
:1008F00004D13068800301D50120F8BD28690321A7
:100900000904084029D00A40824202D02278920687
:1009100006D4A2680A4082421FD0208800051CD558
:1009200028692A6988430121C9040A432A612A697E
:100930008A432A612861C0050FD5FFF73FFF009069
:1009400008E0FFF73BFF0099411A3648814201D980
:100950000320F8BD28698005F3D561688803800FFE
:10096000032805D132680005824301400A43326002
:100970002869032261681204114008432861002F8E
:1009800006D0B06B01210907884300E000E0B063A6
:100990002078C00705D0E868E16880088000084337
:1009A000E8602078800705D5E8680C218843216934
:1009B0000843E8602078400706D5E86803218902EB
:1009C000884361690843E8602078000706D5E86835
:1009D000032109038843A1690843E8602088C00512
:1009E00006D5E868032109048843E1690843E86003
:1009F0002078400606D5E868012189068843616AA7
:100A00000843E8602078000606D5E86803218904D9
:100A10008843216A0843E8600020F8BD4010024086
:100A20000070004088130000F8B50E46050038D06D
:100A30005E480068C007C00FB04214D25B4C20680B
:100A40004008400030432060FFF7B8FE074605E04D
:100A5000FFF7B4FEC11B564881427AD82068C00710
:100A6000C00FB042F4D12878524C800705D5E06819
:100A7000F0218843A9680843E0602878C00752D075
:100A80006868022806D0032807D0216801280AD008
:100A9000890504E02168890301E0216889010029B2
:100AA00003DB0120F8BD4907F9E7E16889088900FF
:100AB0000143E160FFF782FE0746686802280AD01A
:100AC000032814D001281ED029E0FFF777FEC11BB0
:100AD000374881423DD8E0680007800F0228F4D1F2
:100AE00021E0FFF76BFEC11B3148814231D8E0683D
:100AF0000007800F0328F4D115E0FFF75FFEC11B4C
:100B00002B48814225D8E0680007800F0128F4D1E6
:100B100009E0FFF753FEC11B2548814219D8E06860
:100B20000007800FF5D121480168C907C90FB142FC
:100B300017D901684908490031430160FFF73EFEBB
:100B4000074608E005E0FFF739FEC11B184881425F
:100B500001D90320F8BD15480068C007C00FB04296
:100B6000F1D12878400706D5E068072109028843BB
:100B7000E9680843E0602878000707D5E0680721A6
:100B8000C90288432969C9000843E06000F03AF8C7
:100B9000E168094A0906090F515CC8400749086025
:100BA00007480068FFF72CFEF8BD00000020024057
:100BB0008813000000100240181D000810000020DB
:100BC00008000020044805490068C968044A49052E
:100BD000490F515CC84070471000002000100240CF
:100BE000311D0008044805490068C968044A8904A1
:100BF000490F515CC84070471000002000100240AF
:100C0000311D000870B51A4AD3681A490C201840E3
:100C10008D0004280CD04E00082810D00C2810D0CD
:100C200050680004410F0120C003491C884070BD7A
:100C30001068C00601D5084670BD284670BD304614
:100C400070BD98020C4C000F205C1B029C0FD368F7
:100C5000641CDB0301D5314603E01268D20600D4E0
:100C6000294600F08DFF22460023FFF798FA70BD59
:100C70000010024000093D00281D0008FEB50500D7
:100C80007ED0F74CE7680C20E6680740012000049E
:100C900006402878C00747D0082F05D00C2F0AD16E
:100CA00001200004864206D1206880033CD5686894
:100CB0000028E5D038E0012069680004814203D1B2
:100CC00021680143216011E0052301221B049204E5
:100CD0009942216802D111432160F1E781432160EB
:100CE00021680140009120689043206068680028D6
:100CF0000DD0FFF763FD009005E0FFF75FFD009961
:100D0000401A64287ED820688003F6D50CE0FFF7EF
:100D100055FD009005E0FFF751FD0099401A642849
:100D2000F0D820688003F6D4287880075DD5E8687D
:100D3000810604D5226820210A43226088430923C2
:100D4000042F0DD00C2F01D1002E09D000283CD04B
:100D50002168994301432160FFF730FD064628E0F2
:100D60002168490701D500288AD061681F22120234
:100D700091432A691202114361602168994300E09E
:100D8000C7E101432160FFF73DFFE16809060A0F53
:100D9000B449895CC840B4490860B4480068FFF7AA
:100DA0002FFD002874D120E0FFF708FD801B0228EA
:100DB000A8D820684007F7D560681F21090288433A
:100DC00029690902084360600FE02068400840007C
:100DD0002060FFF7F3FC064604E0FFF7EFFC801B02
:100DE00002288FD820684007F7D42878C00661D53C
:100DF000002F0DD0E86900284BD02068FF21013179
:100E0000084300E0EAE02060FFF7D8FC06462DE04A
:100E10002068800502D5E8690028A5D06068072110
:100E200049038843696A084360606068298C00024E
:100E3000000A090608436060686A410B0120C0038C
:100E4000491C8840E16809060A0F8649895CC84048
:100E50008549086085480068FFF7D2FC002817D153
:100E600028E0FFF7ABFC801B0228A1D82068800592
:100E7000F7D56068072149038843696A08436060C1
:100E80006068298C0002000A09060843606011E0CE
:100E900025E12168FF20013081432160FFF78EFCAE
:100EA000064604E0FFF78AFC801B022899D82068D8
:100EB0008005F7D428786E4E000724D5686900288D
:100EC000306910D0012108433061FFF777FC0090B2
:100ED00005E0FFF773FC0099401A02287ED83069BC
:100EE0008007F6D50FE0400840003061FFF766FC50
:100EF000009005E0FFF762FC0099401A02286DD8C7
:100F000030698007F6D42878400764D50020029025
:100F1000A06BC00006D4A06B012109070843A063A1
:100F20000120029053480168C90511D40168821557
:100F300011430160FFF742FC009005E0FFF73EFC23
:100F40000099401A642849D84A480068C005F5D578
:100F5000FF20AA680130824203D131690143316127
:100F600011E001218902002A07D005231B029A42C1
:100F700003D132690A433261EFE732698243326159
:100F8000306988433061A86800280ED0FFF716FC4E
:100F9000009006E0FFF712FC0099411A36488142A2
:100FA0001CD830698005F5D50DE0FFF707FC0090EF
:100FB00006E0FFF703FC0099411A2F4881420DD843
:100FC00030698005F5D40298002804D0A16B012077
:100FD00000078143A1632878800600E07EE02ED5DB
:100FE0002648A9694314002916D0A26801210A43A2
:100FF000A260626B0A436263016A19430162FFF7F0
:10100000DDFB064604E0FFF7D9FB801B022865D80C
:10101000A0688007F7D512E0A16849084900A160DF
:10102000016A99430162FFF7C9FB064604E0FFF736
:10103000C5FB801B022851D8A0688007F7D4A86A96
:10104000002868D00C2F4FD00126360602282068D1
:1010500016D0B0432060FFF7B1FB054640E000002A
:1010600000100240181D0008100000200800002099
:101070004010024000700040881300000000014052
:10108000B0432060FFF79AFB074604E0FFF796FBAA
:10109000C01B022822D820688001F7D4296BE86A97
:1010A000E2680843696BFD231B049A43114308431C
:1010B000E060206830432060FFF780FB054604E0D5
:1010C000FFF77CFB401B022808D820688001F7D579
:1010D00021E0FFF773FB401B022801D90320FEBD6E
:1010E00020688001F5D416E00128F8D0E0680121DD
:1010F0000904EA6A014091420BD10F2189042A6B4D
:101100000140914205D1032189050840696B88425D
:1011100001D00120FEBD0020FEBD0000094910B530
:10112000401E884201D9012010BD074C6061032197
:10113000081F00F04BFD0020A06107202061002067
:1011400010BD0000FFFFFF0000E000E070477047A7
:1011500070470000F8B502680446D06911689668C7
:10116000A24B05461D402023002D75D0F707A04D4A
:10117000FF0FBC460D402F436DD02546C707803575
:10118000002F06D0CF0504D5012717622A683A43FD
:101190002A60820708D5F20706D0276802223A6241
:1011A0002A6804273A432A60420708D5F20706D086
:1011B0002668042232622A68022632432A60020725
:1011C0000AD50A461A406646324305D026680822E8
:1011D00032622E6816432E60020508D54A0106D5F4
:1011E00001222668D20232622A681A432A602A68DB
:1011F000002A39D0800606D5880604D5616E0029FC
:1012000001D020468847286821688968490602D4A9
:10121000282108422DD0204600F006FB216888686E
:10122000400622D5EFF31080012282F310888B68EC
:10123000402293438B6080F31088206F002814D0E5
:101240006C498163206FFFF79DF900280CD0206F57
:10125000816B08E000E012E0850610D58D060ED502
:10126000616EA9E020468847F8BD2046FFF770FF71
:10127000F8BD2046FFF76CFF00202860F8BD256E02
:10128000012D7CD1C5067AD5CD0678D510261662FB
:1012900022689068254640064035002846DA216FCE
:1012A000086840680004000CE8D02F8B8742E5D91D
:1012B000688308680068800633D4EFF3108001214A
:1012C00081F3108811683701B943116080F31088E9
:1012D000EFF31080012181F3108821688A68520899
:1012E00052008A6080F31088EFF31080012181F3AF
:1012F000108821688A684027BA438A6080F3108882
:10130000E36700202066EFF31080012181F310884D
:1013100021680A68B2430A6080F31088206FFFF7E3
:101320000FF9288B698B401A81B231E0288B698BC9
:10133000401A81B2688B0028A0D000299ED0EFF31C
:101340001080012585F310881568FF272137BD43DC
:10135000156080F31088EFF31080012282F310886B
:10136000226895686D086D00956080F31088E367CA
:10137000002020666066EFF31080012200E00BE0A1
:1013800082F3108822681368B343136080F31088D7
:101390002046FFF7DBFEF8BDC50208D5750206D56D
:1013A0000120000510622046FFF7D1FEF8BD0506BA
:1013B00006D50D0604D5A16E002900D052E7F8BD70
:1013C0004006FCD54806FAD52046EFF310810124EB
:1013D00084F3108814684025AC43146081F31088AE
:1013E00083670021816600F0DCF8F8BD0F0800007B
:1013F000200100041518000810B5040003D0A06FE8
:10140000002802D007E0012010BD00217420015502
:10141000204600F027F82420A067206801684908CA
:1014200049000160204600F02FFA0128ECD0606AE4
:10143000002802D0204600F056F9206841680922B1
:10144000D20291434160206881682A2291438160E1
:1014500020680168012211430160204600F0A8F9CC
:1014600010BD000010B586B0044614216846FEF792
:1014700043FF15492068884224D11448416B01225A
:10148000920311434163C16A01221143C162C06AE0
:101490006946104005900320400200900220019010
:1014A00000200290032003900420049005200007F0
:1014B000FFF7A0F8002201211B20FFF7DBF91B201A
:1014C000FFF7CCF906B010BD003801400010024013
:1014D000FFB50446806F83B017460D4620285ED1C5
:1014E000002D0AD0002F08D0A168C001814207D189
:1014F0002069002804D1E80702D0012007B0F0BD20
:10150000204660300090007D012848D000980121DD
:1015100001750020802108512120A067FFF74EF9B6
:10152000264640360190378277820120A168000369
:10153000814202D12069002805D02F46002500995C
:101540000020087511E00027F9E7002280212046DD
:1015500000F0A4FA002815D1002F15D021683878A2
:1015600088627F1C708A401E7082708A019B0028EE
:1015700006980090E9D100224021204600F08EFA22
:10158000002808D00320B9E728882168C005C00DCD
:101590008862AD1CE6E72020A0670020AEE70220AD
:1015A000ACE77047FEE7000070B586B014216846CE
:1015B000FEF7A2FE1448C26A04210A43C262C26A4C
:1015C0000A400592C16A01242143C162C06A0F4EDC
:1015D0002040059000220E213046FFF7E9F8062052
:1015E0000025694631C10220039069463046FFF765
:1015F00001F80820694631C1694630460395FEF777
:10160000F9FF06B070BD0000001002400008005055
:1016100010B50C480A490160E121490241600021EE
:101620008160C16001618161C1610C22016242611E
:101630004162FFF7E1FE002801D0FEF77FFF10BDF9
:101640000038014014000020FEE77047704710B5D5
:10165000FFF7BAF810BD000030B59DB038216846DC
:10166000FEF74AFE142118A8FEF746FE28210EA810
:10167000FEF742FE1A4801680322D2029143C214C7
:1016800089180160022000900A90400401250C9006
:1016900003950001102100240D900B9404916846DD
:1016A000FFF7ECFA002801D072B6FEE70F20189081
:1016B000032019901A941B9401211C9418A8FFF779
:1016C000B3F9002801D072B6FEE70EA80E9511946A
:1016D000FFF7D4F8002801D072B6FEE71DB030BD88
:1016E00000700040704710B5818CC90707D00168B1
:1016F0004A6801235B049A43836A1A434A60818CD7
:10170000890707D501684A6801231B049A43C36A05
:101710001A434A60818C490707D501684A6801234A
:101720009B049A43036B1A434A60818C090707D5CF
:1017300001684A680123DB039A43436B1A434A60FA
:10174000818CC90607D50268916801231B03994360
:10175000836B19439160818C890607D501688A687B
:1017600001235B039A43C36B1A438A60818C490649
:1017700012D503685A6801210905046C8A43224383
:101780005A60026C8A4207D10268516803235B05E4
:101790009943436C19435160818C090607D5016850
:1017A0004A680123DB04806C9A4302434A6010BDFF
:1017B000F8B50446002680300660FEF7FFFF0546B8
:1017C00020680068124F000709D501212B4600222E
:1017D00049052046009700F061F900280DD12068E6
:1017E000006840070BD501212B46002289052046C1
:1017F000009700F053F9002801D00320F8BD202005
:10180000A067E0672666603426750020F8BD0000FA
:10181000FFFFFF0110B5806A0022014640314A8374
:101820004A82FFF795FC10BD10B5EFF3108101223D
:1018300082F3108802681368FF242134A3431360E5
:1018400081F31088EFF31081012282F3108802687F
:1018500093685B085B00936081F31088016E012937
:101860000BD1EFF31081012282F310880268136814
:101870001024A343136081F310882021C167002145
:101880000166416610BD0000F8B504460168806835
:101890002269E66910436269002532431043754BA3
:1018A0000A68754E324002430A602068416803228C
:1018B00012039143E268114341602168A069994293
:1018C00001D0226A10438A680B263602B2430243D3
:1018D0008A606A4922686A488A420CD1C0688007D7
:1018E000800F06D001283FD002283BD0032827D103
:1018F00024E0012725E063498A420AD1C0680C210F
:1019000008402DD004282FD008282BD00C2817D120
:1019100014E05D498A4223D05C498A4220D09A4231
:101920000ED1C16803208002014019D0012080023D
:10193000091A19D0091A15D0814201D1082700E0EF
:1019400010274F495248403986009A4232D1002F21
:101950000CD0022F0DD0042F10D0082F7FD126E0FD
:101960000027EEE70227ECE70427EAE7FFF72AF96A
:1019700006E00968C90605D4304603E0FFF742F9DE
:10198000002872D0626851005118814267D8110353
:10199000814264D3010E06025008002330185941D9
:1019A000FEF7FDFB03210902411A3A4A55E00120E6
:1019B000C003E7E70122E369D20393422BD13B0046
:1019C00000F0F6F80906090C4D114D4D4D274D005C
:1019D000FFF7F8F809E0FFF705F906E00968C9061E
:1019E00005D4304603E0FFF70DF900283DD06168CB
:1019F00040004A088018FEF781FC80B20246264962
:101A0000103A8A422BD8491C01400007400F084376
:101A100029E01046EBE73B0000F0CAF80906090C84
:101A20002112212121232100FFF7CCF80AE0FFF742
:101A3000D9F807E00968C90606D4304604E00EE08C
:101A4000FFF7E0F8002810D061684A081018FEF788
:101A500055FC80B20146104A1039914203D9012544
:101A600003E01046F0E72168C86000206066A066C9
:101A70002846F8BD00480040F369FFEF00380140F8
:101A80004010024000440040004C00400050004024
:101A900000093D00FFFC0F00EFFF0000FFB581B023
:101AA00005461746044660350A9E55E0701C53D023
:101AB000FEF784FE0499401AB04230D8002E2ED092
:101AC00020680168490747D5C069C043000543D471
:101AD00001202168C0020862EFF31080012181F328
:101AE000108821680B68FF22A13293430B6080F3BA
:101AF0001088EFF31080012181F3108821688A6833
:101B0000520852008A6080F310882020A067E067A6
:101B10008034206000202875032005B0F0BDEFF36D
:101B20001080012181F3108821680B68FF22A13207
:101B300093430B6080F31088EFF31080012181F351
:101B4000108821688A68520852008A6080F31088E1
:101B50002020A067E067DDE72068C169029888431C
:101B600004D00020B842A1D00020D6E70120F9E738
:101B700010B50248FFF7EEFA10BD00001400002077
:101B8000F8B5040C8BB2264682B25E430D0C1046AB
:101B9000370C5843360480190021794116466E43AC
:101BA000370C36048019794126466E438919F8BDF1
:101BB00030B47446641E2578641CAB4200D21D46C6
:101BC000635D5B00E31830BC184700008307FF2209
:101BD000DB0E9A408907090E9940002808DB83082C
:101BE00009489B001B181868904308431860704709
:101BF0000007000F0838830804489B001B18D869A9
:101C000090430843D861704700E400E000ED00E035
:101C10007047000013B5044B012269460348FFF7E3
:101C200057FC00981CBD0000FFFF000014000020BE
:101C3000FEF7D2FDFFF710FDFFF7B6FCFFF7E8FC5B
:101C40001BA0FEF72DFB274D7D24E40026A0FEF708
:101C500027FB012202212846FEF7AAFD2046FEF7B7
:101C6000B7FC002202212846FEF7A2FD22A0FEF7C3
:101C700017FB012204212846FEF79AFD2046FEF7B5
:101C8000A7FC002204212846FEF792FD1EA0FEF7C5
:101C900007FB012208212846FEF78AFD2046FEF7B1
:101CA00097FC002208212846FEF782FDCEE70000BF
:101CB000546869732069732061204C454420616E2B
:101CC000642044656275672073657269616C207079
:101CD0006F727420746573742070726F6772616DB7
:101CE000210D0A0000080050475245454E204C4542
:101CF00044204F4E0D0A000059454C4C4F57204C84
:101D00004544204F4E0D0A00524544204C45442086
:101D10004F4E0D0A0D0A00000000000000000000F8
:101D20000102030406070809030406080C10182022
:101D30003000000000010203040000005C1D0008E8
:101D4000000000201400000004010008701D0008BD
:101D500014000020E406000020010008000000003C
:101D6000010000000400000000000000000020004E
:04000005080000C12E
:00000001FF
